{
  "_format": "hh-sol-artifact-1",
  "contractName": "Drive",
  "sourceName": "contracts/Drive.sol",
  "abi": [
    {
      "inputs": [
        {
          "internalType": "string",
          "name": "_fileName",
          "type": "string"
        },
        {
          "internalType": "string",
          "name": "_ipfsHash",
          "type": "string"
        }
      ],
      "name": "addFile",
      "outputs": [],
      "stateMutability": "nonpayable",
      "type": "function"
    },
    {
      "inputs": [
        {
          "internalType": "address",
          "name": "_friend",
          "type": "address"
        }
      ],
      "name": "addFriend",
      "outputs": [],
      "stateMutability": "nonpayable",
      "type": "function"
    },
    {
      "inputs": [
        {
          "internalType": "string",
          "name": "_ipfsHash",
          "type": "string"
        },
        {
          "internalType": "address[]",
          "name": "_friends",
          "type": "address[]"
        }
      ],
      "name": "approveFile",
      "outputs": [],
      "stateMutability": "nonpayable",
      "type": "function"
    },
    {
      "inputs": [
        {
          "internalType": "string",
          "name": "_ipfsHash",
          "type": "string"
        }
      ],
      "name": "deleteFile",
      "outputs": [],
      "stateMutability": "nonpayable",
      "type": "function"
    },
    {
      "inputs": [
        {
          "internalType": "string",
          "name": "_ipfsHash",
          "type": "string"
        },
        {
          "internalType": "address[]",
          "name": "_friends",
          "type": "address[]"
        }
      ],
      "name": "disapproveFile",
      "outputs": [],
      "stateMutability": "nonpayable",
      "type": "function"
    },
    {
      "inputs": [],
      "name": "getAllFiles",
      "outputs": [
        {
          "components": [
            {
              "internalType": "string",
              "name": "fileName",
              "type": "string"
            },
            {
              "internalType": "string",
              "name": "ipfsHash",
              "type": "string"
            },
            {
              "internalType": "uint256",
              "name": "timestamp",
              "type": "uint256"
            }
          ],
          "internalType": "struct Drive.File[]",
          "name": "",
          "type": "tuple[]"
        }
      ],
      "stateMutability": "view",
      "type": "function"
    },
    {
      "inputs": [],
      "name": "getApprovedFiles",
      "outputs": [
        {
          "internalType": "address[]",
          "name": "",
          "type": "address[]"
        },
        {
          "components": [
            {
              "internalType": "string",
              "name": "fileName",
              "type": "string"
            },
            {
              "internalType": "string",
              "name": "ipfsHash",
              "type": "string"
            },
            {
              "internalType": "uint256",
              "name": "timestamp",
              "type": "uint256"
            }
          ],
          "internalType": "struct Drive.File[][]",
          "name": "",
          "type": "tuple[][]"
        }
      ],
      "stateMutability": "view",
      "type": "function"
    },
    {
      "inputs": [],
      "name": "getFriends",
      "outputs": [
        {
          "internalType": "address[]",
          "name": "",
          "type": "address[]"
        }
      ],
      "stateMutability": "view",
      "type": "function"
    },
    {
      "inputs": [
        {
          "internalType": "string",
          "name": "_ipfsHash",
          "type": "string"
        }
      ],
      "name": "getFriendsApprovalStatus",
      "outputs": [
        {
          "internalType": "address[]",
          "name": "",
          "type": "address[]"
        },
        {
          "internalType": "address[]",
          "name": "",
          "type": "address[]"
        }
      ],
      "stateMutability": "view",
      "type": "function"
    },
    {
      "inputs": [
        {
          "internalType": "address",
          "name": "_friend",
          "type": "address"
        }
      ],
      "name": "removeFriend",
      "outputs": [],
      "stateMutability": "nonpayable",
      "type": "function"
    }
  ],
  "bytecode": "0x608060405234801561001057600080fd5b50613a16806100206000396000f3fe608060405234801561001057600080fd5b506004361061009e5760003560e01c806380cee8a51161006657806380cee8a5146101465780638b0f1db314610162578063a991005414610181578063d7a1cfe11461019d578063ff24b5d5146101b95761009e565b80631f8f7270146100a3578063248bfc3b146100c15780632c8e28f2146100dd5780632ed3dec11461010e578063561b83fd1461012a575b600080fd5b6100ab6101d7565b6040516100b891906128d8565b60405180910390f35b6100db60048036038101906100d69190612a54565b6102a2565b005b6100f760048036038101906100f29190612acc565b610472565b604051610105929190612b15565b60405180910390f35b61012860048036038101906101239190612c40565b610a1e565b005b610144600480360381019061013f9190612c40565b610e36565b005b610160600480360381019061015b9190612cb8565b611201565b005b61016a6117ca565b604051610178929190612f58565b60405180910390f35b61019b60048036038101906101969190612acc565b611d5c565b005b6101b760048036038101906101b29190612cb8565b612251565b005b6101c1612492565b6040516101ce9190613015565b60405180910390f35b6060600260003373ffffffffffffffffffffffffffffffffffffffff1673ffffffffffffffffffffffffffffffffffffffff16815260200190815260200160002080548060200260200160405190810160405280929190818152602001828054801561029857602002820191906000526020600020905b8160009054906101000a900473ffffffffffffffffffffffffffffffffffffffff1673ffffffffffffffffffffffffffffffffffffffff168152602001906001019080831161024e575b5050505050905090565b60008060003373ffffffffffffffffffffffffffffffffffffffff1673ffffffffffffffffffffffffffffffffffffffff168152602001908152602001600020826040516102f09190613073565b9081526020016040518091039020600101805461030c906130b9565b90501461034e576040517f08c379a000000000000000000000000000000000000000000000000000000000815260040161034590613147565b60405180910390fd5b6040518060600160405280838152602001828152602001428152506000803373ffffffffffffffffffffffffffffffffffffffff1673ffffffffffffffffffffffffffffffffffffffff168152602001908152602001600020826040516103b59190613073565b908152602001604051809103902060008201518160000190816103d89190613313565b5060208201518160010190816103ee9190613313565b5060408201518160020155905050600160003373ffffffffffffffffffffffffffffffffffffffff1673ffffffffffffffffffffffffffffffffffffffff1681526020019081526020016000208190806001815401808255809150506001900390600052602060002001600090919091909150908161046d9190613313565b505050565b6060808260008060003373ffffffffffffffffffffffffffffffffffffffff1673ffffffffffffffffffffffffffffffffffffffff168152602001908152602001600020826040516104c49190613073565b908152602001604051809103902060010180546104e0906130b9565b905003610522576040517f08c379a000000000000000000000000000000000000000000000000000000000815260040161051990613431565b60405180910390fd5b6000600260003373ffffffffffffffffffffffffffffffffffffffff1673ffffffffffffffffffffffffffffffffffffffff1681526020019081526020016000208054806020026020016040519081016040528092919081815260200182805480156105e357602002820191906000526020600020905b8160009054906101000a900473ffffffffffffffffffffffffffffffffffffffff1673ffffffffffffffffffffffffffffffffffffffff1681526020019060010190808311610599575b505050505090506000815167ffffffffffffffff81111561060757610606612929565b5b6040519080825280602002602001820160405280156106355781602001602082028036833780820191505090505b5090506000825167ffffffffffffffff81111561065557610654612929565b5b6040519080825280602002602001820160405280156106835781602001602082028036833780820191505090505b50905060008060005b855181101561086e5760008682815181106106aa576106a9613451565b5b60200260200101519050600080600360003373ffffffffffffffffffffffffffffffffffffffff1673ffffffffffffffffffffffffffffffffffffffff16815260200190815260200160002060008473ffffffffffffffffffffffffffffffffffffffff1673ffffffffffffffffffffffffffffffffffffffff168152602001908152602001600020905060005b8180549050811015610799578d8051906020012082828154811061075f5761075e613451565b5b906000526020600020016040516107769190613523565b60405180910390200361078c5760019250610799565b8080600101915050610738565b50811561080157828887815181106107b4576107b3613451565b5b602002602001019073ffffffffffffffffffffffffffffffffffffffff16908173ffffffffffffffffffffffffffffffffffffffff168152505085806107f990613569565b96505061085e565b8287868151811061081557610814613451565b5b602002602001019073ffffffffffffffffffffffffffffffffffffffff16908173ffffffffffffffffffffffffffffffffffffffff1681525050848061085a90613569565b9550505b505050808060010191505061068c565b5060008267ffffffffffffffff81111561088b5761088a612929565b5b6040519080825280602002602001820160405280156108b95781602001602082028036833780820191505090505b50905060008267ffffffffffffffff8111156108d8576108d7612929565b5b6040519080825280602002602001820160405280156109065781602001602082028036833780820191505090505b50905060005b848110156109895786818151811061092757610926613451565b5b602002602001015183828151811061094257610941613451565b5b602002602001019073ffffffffffffffffffffffffffffffffffffffff16908173ffffffffffffffffffffffffffffffffffffffff1681525050808060010191505061090c565b5060005b83811015610a0a578581815181106109a8576109a7613451565b5b60200260200101518282815181106109c3576109c2613451565b5b602002602001019073ffffffffffffffffffffffffffffffffffffffff16908173ffffffffffffffffffffffffffffffffffffffff1681525050808060010191505061098d565b508181995099505050505050505050915091565b8160008060003373ffffffffffffffffffffffffffffffffffffffff1673ffffffffffffffffffffffffffffffffffffffff16815260200190815260200160002082604051610a6d9190613073565b90815260200160405180910390206001018054610a89906130b9565b905003610acb576040517f08c379a0000000000000000000000000000000000000000000000000000000008152600401610ac290613431565b60405180910390fd5b60005b8251811015610e30576000838281518110610aec57610aeb613451565b5b602002602001015190506000805b600260003373ffffffffffffffffffffffffffffffffffffffff1673ffffffffffffffffffffffffffffffffffffffff16815260200190815260200160002080549050811015610c08578273ffffffffffffffffffffffffffffffffffffffff16600260003373ffffffffffffffffffffffffffffffffffffffff1673ffffffffffffffffffffffffffffffffffffffff1681526020019081526020016000208281548110610bac57610bab613451565b5b9060005260206000200160009054906101000a900473ffffffffffffffffffffffffffffffffffffffff1673ffffffffffffffffffffffffffffffffffffffff1603610bfb5760019150610c08565b8080600101915050610afa565b5080610c49576040517f08c379a0000000000000000000000000000000000000000000000000000000008152600401610c40906135fd565b60405180910390fd5b6000600360003373ffffffffffffffffffffffffffffffffffffffff1673ffffffffffffffffffffffffffffffffffffffff16815260200190815260200160002060008473ffffffffffffffffffffffffffffffffffffffff1673ffffffffffffffffffffffffffffffffffffffff16815260200190815260200160002090506000805b8280549050811015610d2e578880519060200120838281548110610cf457610cf3613451565b5b90600052602060002001604051610d0b9190613523565b604051809103902003610d215760019150610d2e565b8080600101915050610ccd565b508015610d70576040517f08c379a0000000000000000000000000000000000000000000000000000000008152600401610d679061368f565b60405180910390fd5b600360003373ffffffffffffffffffffffffffffffffffffffff1673ffffffffffffffffffffffffffffffffffffffff16815260200190815260200160002060008573ffffffffffffffffffffffffffffffffffffffff1673ffffffffffffffffffffffffffffffffffffffff16815260200190815260200160002088908060018154018082558091505060019003906000526020600020016000909190919091509081610e1e9190613313565b50505050508080600101915050610ace565b50505050565b8160008060003373ffffffffffffffffffffffffffffffffffffffff1673ffffffffffffffffffffffffffffffffffffffff16815260200190815260200160002082604051610e859190613073565b90815260200160405180910390206001018054610ea1906130b9565b905003610ee3576040517f08c379a0000000000000000000000000000000000000000000000000000000008152600401610eda90613431565b60405180910390fd5b6000600260003373ffffffffffffffffffffffffffffffffffffffff1673ffffffffffffffffffffffffffffffffffffffff168152602001908152602001600020905060005b83518110156111fa576000848281518110610f4757610f46613451565b5b602002602001015190506000805b8480549050811015610fe7578273ffffffffffffffffffffffffffffffffffffffff16858281548110610f8b57610f8a613451565b5b9060005260206000200160009054906101000a900473ffffffffffffffffffffffffffffffffffffffff1673ffffffffffffffffffffffffffffffffffffffff1603610fda5760019150610fe7565b8080600101915050610f55565b5080611028576040517f08c379a000000000000000000000000000000000000000000000000000000000815260040161101f906135fd565b60405180910390fd5b6000600360003373ffffffffffffffffffffffffffffffffffffffff1673ffffffffffffffffffffffffffffffffffffffff16815260200190815260200160002060008473ffffffffffffffffffffffffffffffffffffffff1673ffffffffffffffffffffffffffffffffffffffff16815260200190815260200160002090506000805b82805490508110156111a85789805190602001208382815481106110d3576110d2613451565b5b906000526020600020016040516110ea9190613523565b60405180910390200361119b57600191506001838054905061110c91906136af565b811015611167578260018261112191906136e3565b8154811061113257611131613451565b5b9060005260206000200183828154811061114f5761114e613451565b5b9060005260206000200190816111659190613742565b505b828054806111785761117761382a565b5b6001900381819060005260206000200160006111949190612725565b90556111a8565b80806001019150506110ac565b50806111e9576040517f08c379a00000000000000000000000000000000000000000000000000000000081526004016111e0906138cb565b60405180910390fd5b505050508080600101915050610f29565b5050505050565b806040518060400160405280601481526020017f596f7520617265206e6f7420667269656e64732e00000000000000000000000081525060016000805b600260003373ffffffffffffffffffffffffffffffffffffffff1673ffffffffffffffffffffffffffffffffffffffff1681526020019081526020016000208054905081101561134c578473ffffffffffffffffffffffffffffffffffffffff16600260003373ffffffffffffffffffffffffffffffffffffffff1673ffffffffffffffffffffffffffffffffffffffff16815260200190815260200160002082815481106112f0576112ef613451565b5b9060005260206000200160009054906101000a900473ffffffffffffffffffffffffffffffffffffffff1673ffffffffffffffffffffffffffffffffffffffff160361133f576001915061134c565b808060010191505061123e565b50811515811515148390611396576040517f08c379a000000000000000000000000000000000000000000000000000000000815260040161138d9190613924565b60405180910390fd5b506000805b600260003373ffffffffffffffffffffffffffffffffffffffff1673ffffffffffffffffffffffffffffffffffffffff1681526020019081526020016000208054905081101561162657818061149757508673ffffffffffffffffffffffffffffffffffffffff16600260003373ffffffffffffffffffffffffffffffffffffffff1673ffffffffffffffffffffffffffffffffffffffff168152602001908152602001600020828154811061145457611453613451565b5b9060005260206000200160009054906101000a900473ffffffffffffffffffffffffffffffffffffffff1673ffffffffffffffffffffffffffffffffffffffff16145b15611619576001600260003373ffffffffffffffffffffffffffffffffffffffff1673ffffffffffffffffffffffffffffffffffffffff168152602001908152602001600020805490506114eb91906136af565b81101561161457600260003373ffffffffffffffffffffffffffffffffffffffff1673ffffffffffffffffffffffffffffffffffffffff16815260200190815260200160002060018261153e91906136e3565b8154811061154f5761154e613451565b5b9060005260206000200160009054906101000a900473ffffffffffffffffffffffffffffffffffffffff16600260003373ffffffffffffffffffffffffffffffffffffffff1673ffffffffffffffffffffffffffffffffffffffff16815260200190815260200160002082815481106115cb576115ca613451565b5b9060005260206000200160006101000a81548173ffffffffffffffffffffffffffffffffffffffff021916908373ffffffffffffffffffffffffffffffffffffffff1602179055505b600191505b808060010191505061139b565b5080156116b257600260003373ffffffffffffffffffffffffffffffffffffffff1673ffffffffffffffffffffffffffffffffffffffff16815260200190815260200160002080548061167c5761167b61382a565b5b6001900381819060005260206000200160006101000a81549073ffffffffffffffffffffffffffffffffffffffff021916905590555b600360003373ffffffffffffffffffffffffffffffffffffffff1673ffffffffffffffffffffffffffffffffffffffff16815260200190815260200160002060008773ffffffffffffffffffffffffffffffffffffffff1673ffffffffffffffffffffffffffffffffffffffff168152602001908152602001600020600061173a9190612765565b600360008773ffffffffffffffffffffffffffffffffffffffff1673ffffffffffffffffffffffffffffffffffffffff16815260200190815260200160002060003373ffffffffffffffffffffffffffffffffffffffff1673ffffffffffffffffffffffffffffffffffffffff16815260200190815260200160002060006117c29190612765565b505050505050565b6060806000600260003373ffffffffffffffffffffffffffffffffffffffff1673ffffffffffffffffffffffffffffffffffffffff16815260200190815260200160002080549050905060008167ffffffffffffffff8111156118305761182f612929565b5b60405190808252806020026020018201604052801561185e5781602001602082028036833780820191505090505b50905060008267ffffffffffffffff81111561187d5761187c612929565b5b6040519080825280602002602001820160405280156118b057816020015b606081526020019060019003908161189b5790505b50905060005b83811015611d4e576000600260003373ffffffffffffffffffffffffffffffffffffffff1673ffffffffffffffffffffffffffffffffffffffff168152602001908152602001600020828154811061191157611910613451565b5b9060005260206000200160009054906101000a900473ffffffffffffffffffffffffffffffffffffffff1690508084838151811061195257611951613451565b5b602002602001019073ffffffffffffffffffffffffffffffffffffffff16908173ffffffffffffffffffffffffffffffffffffffff16815250506000600360008373ffffffffffffffffffffffffffffffffffffffff1673ffffffffffffffffffffffffffffffffffffffff16815260200190815260200160002060003373ffffffffffffffffffffffffffffffffffffffff1673ffffffffffffffffffffffffffffffffffffffff168152602001908152602001600020805480602002602001604051908101604052809291908181526020016000905b82821015611ad6578382906000526020600020018054611a49906130b9565b80601f0160208091040260200160405190810160405280929190818152602001828054611a75906130b9565b8015611ac25780601f10611a9757610100808354040283529160200191611ac2565b820191906000526020600020905b815481529060010190602001808311611aa557829003601f168201915b505050505081526020019060010190611a2a565b50505050905060008151905060008167ffffffffffffffff811115611afe57611afd612929565b5b604051908082528060200260200182016040528015611b3757816020015b611b24612786565b815260200190600190039081611b1c5790505b50905060005b82811015611d1d576000808673ffffffffffffffffffffffffffffffffffffffff1673ffffffffffffffffffffffffffffffffffffffff168152602001908152602001600020848281518110611b9657611b95613451565b5b6020026020010151604051611bab9190613073565b9081526020016040518091039020604051806060016040529081600082018054611bd4906130b9565b80601f0160208091040260200160405190810160405280929190818152602001828054611c00906130b9565b8015611c4d5780601f10611c2257610100808354040283529160200191611c4d565b820191906000526020600020905b815481529060010190602001808311611c3057829003601f168201915b50505050508152602001600182018054611c66906130b9565b80601f0160208091040260200160405190810160405280929190818152602001828054611c92906130b9565b8015611cdf5780601f10611cb457610100808354040283529160200191611cdf565b820191906000526020600020905b815481529060010190602001808311611cc257829003601f168201915b50505050508152602001600282015481525050828281518110611d0557611d04613451565b5b60200260200101819052508080600101915050611b3d565b5080868681518110611d3257611d31613451565b5b60200260200101819052505050505080806001019150506118b6565b508181945094505050509091565b8060008060003373ffffffffffffffffffffffffffffffffffffffff1673ffffffffffffffffffffffffffffffffffffffff16815260200190815260200160002082604051611dab9190613073565b90815260200160405180910390206001018054611dc7906130b9565b905003611e09576040517f08c379a0000000000000000000000000000000000000000000000000000000008152600401611e0090613431565b60405180910390fd5b6000600160003373ffffffffffffffffffffffffffffffffffffffff1673ffffffffffffffffffffffffffffffffffffffff16815260200190815260200160002090506000805b8280549050811015611f22578480519060200120838281548110611e7757611e76613451565b5b90600052602060002001604051611e8e9190613523565b604051809103902003611ea057600191505b818015611ebc575060018380549050611eb991906136af565b81105b15611f155782600182611ecf91906136e3565b81548110611ee057611edf613451565b5b90600052602060002001838281548110611efd57611efc613451565b5b906000526020600020019081611f139190613742565b505b8080600101915050611e50565b508015611fde5781805480611f3a57611f3961382a565b5b600190038181906000526020600020016000611f569190612725565b90556000803373ffffffffffffffffffffffffffffffffffffffff1673ffffffffffffffffffffffffffffffffffffffff16815260200190815260200160002084604051611fa49190613073565b908152602001604051809103902060008082016000611fc39190612725565b600182016000611fd39190612725565b600282016000905550505b60005b600260003373ffffffffffffffffffffffffffffffffffffffff1673ffffffffffffffffffffffffffffffffffffffff1681526020019081526020016000208054905081101561224a576000600260003373ffffffffffffffffffffffffffffffffffffffff1673ffffffffffffffffffffffffffffffffffffffff168152602001908152602001600020828154811061207e5761207d613451565b5b9060005260206000200160009054906101000a900473ffffffffffffffffffffffffffffffffffffffff1690506000600360003373ffffffffffffffffffffffffffffffffffffffff1673ffffffffffffffffffffffffffffffffffffffff16815260200190815260200160002060008373ffffffffffffffffffffffffffffffffffffffff1673ffffffffffffffffffffffffffffffffffffffff16815260200190815260200160002090506000935060005b818054905081101561220457878051906020012082828154811061215957612158613451565b5b906000526020600020016040516121709190613523565b60405180910390200361218257600194505b84801561219e57506001828054905061219b91906136af565b81105b156121f757816001826121b191906136e3565b815481106121c2576121c1613451565b5b906000526020600020018282815481106121df576121de613451565b5b9060005260206000200190816121f59190613742565b505b8080600101915050612132565b50831561223b578080548061221c5761221b61382a565b5b6001900381819060005260206000200160006122389190612725565b90555b50508080600101915050611fe1565b5050505050565b806040518060400160405280601181526020017f416c7265616479206120667269656e642e0000000000000000000000000000008152506000806000905060005b600260003373ffffffffffffffffffffffffffffffffffffffff1673ffffffffffffffffffffffffffffffffffffffff168152602001908152602001600020805490508110156123a0578473ffffffffffffffffffffffffffffffffffffffff16600260003373ffffffffffffffffffffffffffffffffffffffff1673ffffffffffffffffffffffffffffffffffffffff168152602001908152602001600020828154811061234457612343613451565b5b9060005260206000200160009054906101000a900473ffffffffffffffffffffffffffffffffffffffff1673ffffffffffffffffffffffffffffffffffffffff160361239357600191506123a0565b8080600101915050612292565b508115158115151483906123ea576040517f08c379a00000000000000000000000000000000000000000000000000000000081526004016123e19190613924565b60405180910390fd5b50600260003373ffffffffffffffffffffffffffffffffffffffff1673ffffffffffffffffffffffffffffffffffffffff168152602001908152602001600020859080600181540180825580915050600190039060005260206000200160009091909190916101000a81548173ffffffffffffffffffffffffffffffffffffffff021916908373ffffffffffffffffffffffffffffffffffffffff1602179055505050505050565b60606000600160003373ffffffffffffffffffffffffffffffffffffffff1673ffffffffffffffffffffffffffffffffffffffff16815260200190815260200160002090506000818054905067ffffffffffffffff8111156124f7576124f6612929565b5b60405190808252806020026020018201604052801561253057816020015b61251d612786565b8152602001906001900390816125155790505b50905060005b828054905081101561271c576000803373ffffffffffffffffffffffffffffffffffffffff1673ffffffffffffffffffffffffffffffffffffffff16815260200190815260200160002083828154811061259357612592613451565b5b906000526020600020016040516125aa91906139c9565b90815260200160405180910390206040518060600160405290816000820180546125d3906130b9565b80601f01602080910402602001604051908101604052809291908181526020018280546125ff906130b9565b801561264c5780601f106126215761010080835404028352916020019161264c565b820191906000526020600020905b81548152906001019060200180831161262f57829003601f168201915b50505050508152602001600182018054612665906130b9565b80601f0160208091040260200160405190810160405280929190818152602001828054612691906130b9565b80156126de5780601f106126b3576101008083540402835291602001916126de565b820191906000526020600020905b8154815290600101906020018083116126c157829003601f168201915b5050505050815260200160028201548152505082828151811061270457612703613451565b5b60200260200101819052508080600101915050612536565b50809250505090565b508054612731906130b9565b6000825580601f106127435750612762565b601f01602090049060005260206000209081019061276191906127a7565b5b50565b508054600082559060005260206000209081019061278391906127c4565b50565b60405180606001604052806060815260200160608152602001600081525090565b5b808211156127c05760008160009055506001016127a8565b5090565b5b808211156127e457600081816127db9190612725565b506001016127c5565b5090565b600081519050919050565b600082825260208201905092915050565b6000819050602082019050919050565b600073ffffffffffffffffffffffffffffffffffffffff82169050919050565b600061283f82612814565b9050919050565b61284f81612834565b82525050565b60006128618383612846565b60208301905092915050565b6000602082019050919050565b6000612885826127e8565b61288f81856127f3565b935061289a83612804565b8060005b838110156128cb5781516128b28882612855565b97506128bd8361286d565b92505060018101905061289e565b5085935050505092915050565b600060208201905081810360008301526128f2818461287a565b905092915050565b6000604051905090565b600080fd5b600080fd5b600080fd5b600080fd5b6000601f19601f8301169050919050565b7f4e487b7100000000000000000000000000000000000000000000000000000000600052604160045260246000fd5b61296182612918565b810181811067ffffffffffffffff821117156129805761297f612929565b5b80604052505050565b60006129936128fa565b905061299f8282612958565b919050565b600067ffffffffffffffff8211156129bf576129be612929565b5b6129c882612918565b9050602081019050919050565b82818337600083830152505050565b60006129f76129f2846129a4565b612989565b905082815260208101848484011115612a1357612a12612913565b5b612a1e8482856129d5565b509392505050565b600082601f830112612a3b57612a3a61290e565b5b8135612a4b8482602086016129e4565b91505092915050565b60008060408385031215612a6b57612a6a612904565b5b600083013567ffffffffffffffff811115612a8957612a88612909565b5b612a9585828601612a26565b925050602083013567ffffffffffffffff811115612ab657612ab5612909565b5b612ac285828601612a26565b9150509250929050565b600060208284031215612ae257612ae1612904565b5b600082013567ffffffffffffffff811115612b0057612aff612909565b5b612b0c84828501612a26565b91505092915050565b60006040820190508181036000830152612b2f818561287a565b90508181036020830152612b43818461287a565b90509392505050565b600067ffffffffffffffff821115612b6757612b66612929565b5b602082029050602081019050919050565b600080fd5b612b8681612834565b8114612b9157600080fd5b50565b600081359050612ba381612b7d565b92915050565b6000612bbc612bb784612b4c565b612989565b90508083825260208201905060208402830185811115612bdf57612bde612b78565b5b835b81811015612c085780612bf48882612b94565b845260208401935050602081019050612be1565b5050509392505050565b600082601f830112612c2757612c2661290e565b5b8135612c37848260208601612ba9565b91505092915050565b60008060408385031215612c5757612c56612904565b5b600083013567ffffffffffffffff811115612c7557612c74612909565b5b612c8185828601612a26565b925050602083013567ffffffffffffffff811115612ca257612ca1612909565b5b612cae85828601612c12565b9150509250929050565b600060208284031215612cce57612ccd612904565b5b6000612cdc84828501612b94565b91505092915050565b600081519050919050565b600082825260208201905092915050565b6000819050602082019050919050565b600081519050919050565b600082825260208201905092915050565b6000819050602082019050919050565b600081519050919050565b600082825260208201905092915050565b60005b83811015612d77578082015181840152602081019050612d5c565b60008484015250505050565b6000612d8e82612d3d565b612d988185612d48565b9350612da8818560208601612d59565b612db181612918565b840191505092915050565b6000819050919050565b612dcf81612dbc565b82525050565b60006060830160008301518482036000860152612df28282612d83565b91505060208301518482036020860152612e0c8282612d83565b9150506040830151612e216040860182612dc6565b508091505092915050565b6000612e388383612dd5565b905092915050565b6000602082019050919050565b6000612e5882612d11565b612e628185612d1c565b935083602082028501612e7485612d2d565b8060005b85811015612eb05784840389528151612e918582612e2c565b9450612e9c83612e40565b925060208a01995050600181019050612e78565b50829750879550505050505092915050565b6000612ece8383612e4d565b905092915050565b6000602082019050919050565b6000612eee82612ce5565b612ef88185612cf0565b935083602082028501612f0a85612d01565b8060005b85811015612f465784840389528151612f278582612ec2565b9450612f3283612ed6565b925060208a01995050600181019050612f0e565b50829750879550505050505092915050565b60006040820190508181036000830152612f72818561287a565b90508181036020830152612f868184612ee3565b90509392505050565b600082825260208201905092915050565b6000612fab82612d11565b612fb58185612f8f565b935083602082028501612fc785612d2d565b8060005b858110156130035784840389528151612fe48582612e2c565b9450612fef83612e40565b925060208a01995050600181019050612fcb565b50829750879550505050505092915050565b6000602082019050818103600083015261302f8184612fa0565b905092915050565b600081905092915050565b600061304d82612d3d565b6130578185613037565b9350613067818560208601612d59565b80840191505092915050565b600061307f8284613042565b915081905092915050565b7f4e487b7100000000000000000000000000000000000000000000000000000000600052602260045260246000fd5b600060028204905060018216806130d157607f821691505b6020821081036130e4576130e361308a565b5b50919050565b600082825260208201905092915050565b7f46696c6520616c72656164792065786973747300000000000000000000000000600082015250565b60006131316013836130ea565b915061313c826130fb565b602082019050919050565b6000602082019050818103600083015261316081613124565b9050919050565b60008190508160005260206000209050919050565b60006020601f8301049050919050565b600082821b905092915050565b6000600883026131c97fffffffffffffffffffffffffffffffffffffffffffffffffffffffffffffffff8261318c565b6131d3868361318c565b95508019841693508086168417925050509392505050565b6000819050919050565b600061321061320b61320684612dbc565b6131eb565b612dbc565b9050919050565b6000819050919050565b61322a836131f5565b61323e61323682613217565b848454613199565b825550505050565b600090565b613253613246565b61325e818484613221565b505050565b5b818110156132825761327760008261324b565b600181019050613264565b5050565b601f8211156132c75761329881613167565b6132a18461317c565b810160208510156132b0578190505b6132c46132bc8561317c565b830182613263565b50505b505050565b600082821c905092915050565b60006132ea600019846008026132cc565b1980831691505092915050565b600061330383836132d9565b9150826002028217905092915050565b61331c82612d3d565b67ffffffffffffffff81111561333557613334612929565b5b61333f82546130b9565b61334a828285613286565b600060209050601f83116001811461337d576000841561336b578287015190505b61337585826132f7565b8655506133dd565b601f19841661338b86613167565b60005b828110156133b35784890151825560018201915060208501945060208101905061338e565b868310156133d057848901516133cc601f8916826132d9565b8355505b6001600288020188555050505b505050505050565b7f46696c6520646f6573206e6f7420657869737400000000000000000000000000600082015250565b600061341b6013836130ea565b9150613426826133e5565b602082019050919050565b6000602082019050818103600083015261344a8161340e565b9050919050565b7f4e487b7100000000000000000000000000000000000000000000000000000000600052603260045260246000fd5b600081905092915050565b60008190508160005260206000209050919050565b600081546134ad816130b9565b6134b78186613480565b945060018216600081146134d257600181146134e75761351a565b60ff198316865281151582028601935061351a565b6134f08561348b565b60005b83811015613512578154818901526001820191506020810190506134f3565b838801955050505b50505092915050565b600061352f82846134a0565b915081905092915050565b7f4e487b7100000000000000000000000000000000000000000000000000000000600052601160045260246000fd5b600061357482612dbc565b91507fffffffffffffffffffffffffffffffffffffffffffffffffffffffffffffffff82036135a6576135a561353a565b5b600182019050919050565b7f536f6d656f6e65206973206e6f74206120667269656e64000000000000000000600082015250565b60006135e76017836130ea565b91506135f2826135b1565b602082019050919050565b60006020820190508181036000830152613616816135da565b9050919050565b7f46696c6520616c726561647920617070726f76656420666f722074686973206660008201527f7269656e64000000000000000000000000000000000000000000000000000000602082015250565b60006136796025836130ea565b91506136848261361d565b604082019050919050565b600060208201905081810360008301526136a88161366c565b9050919050565b60006136ba82612dbc565b91506136c583612dbc565b92508282039050818111156136dd576136dc61353a565b5b92915050565b60006136ee82612dbc565b91506136f983612dbc565b92508282019050808211156137115761371061353a565b5b92915050565b600081549050613726816130b9565b9050919050565b60008190508160005260206000209050919050565b818103613750575050613828565b61375982613717565b67ffffffffffffffff81111561377257613771612929565b5b61377c82546130b9565b613787828285613286565b6000601f8311600181146137b657600084156137a4578287015490505b6137ae85826132f7565b865550613821565b601f1984166137c48761372d565b96506137cf86613167565b60005b828110156137f7578489015482556001820191506001850194506020810190506137d2565b868310156138145784890154613810601f8916826132d9565b8355505b6001600288020188555050505b5050505050505b565b7f4e487b7100000000000000000000000000000000000000000000000000000000600052603160045260246000fd5b7f46696c65206e6f7420617070726f76656420666f72207468697320667269656e60008201527f6400000000000000000000000000000000000000000000000000000000000000602082015250565b60006138b56021836130ea565b91506138c082613859565b604082019050919050565b600060208201905081810360008301526138e4816138a8565b9050919050565b60006138f682612d3d565b61390081856130ea565b9350613910818560208601612d59565b61391981612918565b840191505092915050565b6000602082019050818103600083015261393e81846138eb565b905092915050565b60008154613953816130b9565b61395d8186613037565b94506001821660008114613978576001811461398d576139c0565b60ff19831686528115158202860193506139c0565b61399685613167565b60005b838110156139b857815481890152600182019150602081019050613999565b838801955050505b50505092915050565b60006139d58284613946565b91508190509291505056fea264697066735822122028e29028d4b80d8afd3c0ae0cf34023c75bf69720702d4fef36abe5fefb4644464736f6c63430008180033",
  "linkReferences": {},
  "deployedLinkReferences": {}
}