{
  "_format": "hh-sol-artifact-1",
  "contractName": "Drive",
  "sourceName": "contracts/Drive.sol",
  "abi": [
    {
      "inputs": [
        {
          "internalType": "string",
          "name": "_fileName",
          "type": "string"
        },
        {
          "internalType": "string",
          "name": "_ipfsHash",
          "type": "string"
        }
      ],
      "name": "addFile",
      "outputs": [],
      "stateMutability": "nonpayable",
      "type": "function"
    },
    {
      "inputs": [
        {
          "internalType": "address",
          "name": "_friend",
          "type": "address"
        }
      ],
      "name": "addFriend",
      "outputs": [],
      "stateMutability": "nonpayable",
      "type": "function"
    },
    {
      "inputs": [
        {
          "internalType": "string",
          "name": "_ipfsHash",
          "type": "string"
        },
        {
          "internalType": "address[]",
          "name": "_friends",
          "type": "address[]"
        }
      ],
      "name": "approveFile",
      "outputs": [],
      "stateMutability": "nonpayable",
      "type": "function"
    },
    {
      "inputs": [
        {
          "internalType": "string",
          "name": "_ipfsHash",
          "type": "string"
        }
      ],
      "name": "deleteFile",
      "outputs": [],
      "stateMutability": "nonpayable",
      "type": "function"
    },
    {
      "inputs": [
        {
          "internalType": "string",
          "name": "_ipfsHash",
          "type": "string"
        },
        {
          "internalType": "address[]",
          "name": "_friends",
          "type": "address[]"
        }
      ],
      "name": "disapproveFile",
      "outputs": [],
      "stateMutability": "nonpayable",
      "type": "function"
    },
    {
      "inputs": [],
      "name": "getAllFiles",
      "outputs": [
        {
          "components": [
            {
              "internalType": "string",
              "name": "fileName",
              "type": "string"
            },
            {
              "internalType": "string",
              "name": "ipfsHash",
              "type": "string"
            },
            {
              "internalType": "uint256",
              "name": "timestamp",
              "type": "uint256"
            }
          ],
          "internalType": "struct Drive.File[]",
          "name": "",
          "type": "tuple[]"
        }
      ],
      "stateMutability": "view",
      "type": "function"
    },
    {
      "inputs": [],
      "name": "getApprovedFiles",
      "outputs": [
        {
          "internalType": "address[]",
          "name": "",
          "type": "address[]"
        },
        {
          "components": [
            {
              "internalType": "string",
              "name": "fileName",
              "type": "string"
            },
            {
              "internalType": "string",
              "name": "ipfsHash",
              "type": "string"
            },
            {
              "internalType": "uint256",
              "name": "timestamp",
              "type": "uint256"
            }
          ],
          "internalType": "struct Drive.File[][]",
          "name": "",
          "type": "tuple[][]"
        }
      ],
      "stateMutability": "view",
      "type": "function"
    },
    {
      "inputs": [],
      "name": "getFriends",
      "outputs": [
        {
          "internalType": "address[]",
          "name": "",
          "type": "address[]"
        }
      ],
      "stateMutability": "view",
      "type": "function"
    },
    {
      "inputs": [
        {
          "internalType": "string",
          "name": "_ipfsHash",
          "type": "string"
        }
      ],
      "name": "getFriendsApprovalStatus",
      "outputs": [
        {
          "internalType": "address[]",
          "name": "",
          "type": "address[]"
        },
        {
          "internalType": "address[]",
          "name": "",
          "type": "address[]"
        }
      ],
      "stateMutability": "view",
      "type": "function"
    },
    {
      "inputs": [
        {
          "internalType": "address",
          "name": "_address",
          "type": "address"
        },
        {
          "internalType": "string",
          "name": "_ipfs",
          "type": "string"
        }
      ],
      "name": "ipfsToName",
      "outputs": [
        {
          "internalType": "string",
          "name": "",
          "type": "string"
        }
      ],
      "stateMutability": "view",
      "type": "function"
    },
    {
      "inputs": [
        {
          "internalType": "address",
          "name": "_friend",
          "type": "address"
        }
      ],
      "name": "removeFriend",
      "outputs": [],
      "stateMutability": "nonpayable",
      "type": "function"
    }
  ],
  "bytecode": "0x608060405234801561001057600080fd5b50613c9d806100206000396000f3fe608060405234801561001057600080fd5b50600436106100a95760003560e01c8063561b83fd11610071578063561b83fd1461016557806380cee8a5146101815780638b0f1db31461019d578063a9910054146101bc578063d7a1cfe1146101d8578063ff24b5d5146101f4576100a9565b80631f8f7270146100ae578063248bfc3b146100cc5780632c8e28f2146100e85780632ed3dec1146101195780633b5c941a14610135575b600080fd5b6100b6610212565b6040516100c39190612a71565b60405180910390f35b6100e660048036038101906100e19190612bed565b6102dd565b005b61010260048036038101906100fd9190612c65565b6104ad565b604051610110929190612cae565b60405180910390f35b610133600480360381019061012e9190612dd9565b610a59565b005b61014f600480360381019061014a9190612e51565b610e71565b60405161015c9190612f2c565b60405180910390f35b61017f600480360381019061017a9190612dd9565b610f61565b005b61019b60048036038101906101969190612f4e565b61132c565b005b6101a56118f5565b6040516101b39291906131b9565b60405180910390f35b6101d660048036038101906101d19190612c65565b611e87565b005b6101f260048036038101906101ed9190612f4e565b61237c565b005b6101fc61262b565b6040516102099190613276565b60405180910390f35b6060600260003373ffffffffffffffffffffffffffffffffffffffff1673ffffffffffffffffffffffffffffffffffffffff1681526020019081526020016000208054806020026020016040519081016040528092919081815260200182805480156102d357602002820191906000526020600020905b8160009054906101000a900473ffffffffffffffffffffffffffffffffffffffff1673ffffffffffffffffffffffffffffffffffffffff1681526020019060010190808311610289575b5050505050905090565b60008060003373ffffffffffffffffffffffffffffffffffffffff1673ffffffffffffffffffffffffffffffffffffffff1681526020019081526020016000208260405161032b91906132d4565b908152602001604051809103902060010180546103479061331a565b905014610389576040517f08c379a000000000000000000000000000000000000000000000000000000000815260040161038090613397565b60405180910390fd5b6040518060600160405280838152602001828152602001428152506000803373ffffffffffffffffffffffffffffffffffffffff1673ffffffffffffffffffffffffffffffffffffffff168152602001908152602001600020826040516103f091906132d4565b908152602001604051809103902060008201518160000190816104139190613563565b5060208201518160010190816104299190613563565b5060408201518160020155905050600160003373ffffffffffffffffffffffffffffffffffffffff1673ffffffffffffffffffffffffffffffffffffffff168152602001908152602001600020819080600181540180825580915050600190039060005260206000200160009091909190915090816104a89190613563565b505050565b6060808260008060003373ffffffffffffffffffffffffffffffffffffffff1673ffffffffffffffffffffffffffffffffffffffff168152602001908152602001600020826040516104ff91906132d4565b9081526020016040518091039020600101805461051b9061331a565b90500361055d576040517f08c379a000000000000000000000000000000000000000000000000000000000815260040161055490613681565b60405180910390fd5b6000600260003373ffffffffffffffffffffffffffffffffffffffff1673ffffffffffffffffffffffffffffffffffffffff16815260200190815260200160002080548060200260200160405190810160405280929190818152602001828054801561061e57602002820191906000526020600020905b8160009054906101000a900473ffffffffffffffffffffffffffffffffffffffff1673ffffffffffffffffffffffffffffffffffffffff16815260200190600101908083116105d4575b505050505090506000815167ffffffffffffffff81111561064257610641612ac2565b5b6040519080825280602002602001820160405280156106705781602001602082028036833780820191505090505b5090506000825167ffffffffffffffff8111156106905761068f612ac2565b5b6040519080825280602002602001820160405280156106be5781602001602082028036833780820191505090505b50905060008060005b85518110156108a95760008682815181106106e5576106e46136a1565b5b60200260200101519050600080600360003373ffffffffffffffffffffffffffffffffffffffff1673ffffffffffffffffffffffffffffffffffffffff16815260200190815260200160002060008473ffffffffffffffffffffffffffffffffffffffff1673ffffffffffffffffffffffffffffffffffffffff168152602001908152602001600020905060005b81805490508110156107d4578d8051906020012082828154811061079a576107996136a1565b5b906000526020600020016040516107b19190613773565b6040518091039020036107c757600192506107d4565b8080600101915050610773565b50811561083c57828887815181106107ef576107ee6136a1565b5b602002602001019073ffffffffffffffffffffffffffffffffffffffff16908173ffffffffffffffffffffffffffffffffffffffff16815250508580610834906137b9565b965050610899565b828786815181106108505761084f6136a1565b5b602002602001019073ffffffffffffffffffffffffffffffffffffffff16908173ffffffffffffffffffffffffffffffffffffffff16815250508480610895906137b9565b9550505b50505080806001019150506106c7565b5060008267ffffffffffffffff8111156108c6576108c5612ac2565b5b6040519080825280602002602001820160405280156108f45781602001602082028036833780820191505090505b50905060008267ffffffffffffffff81111561091357610912612ac2565b5b6040519080825280602002602001820160405280156109415781602001602082028036833780820191505090505b50905060005b848110156109c457868181518110610962576109616136a1565b5b602002602001015183828151811061097d5761097c6136a1565b5b602002602001019073ffffffffffffffffffffffffffffffffffffffff16908173ffffffffffffffffffffffffffffffffffffffff16815250508080600101915050610947565b5060005b83811015610a45578581815181106109e3576109e26136a1565b5b60200260200101518282815181106109fe576109fd6136a1565b5b602002602001019073ffffffffffffffffffffffffffffffffffffffff16908173ffffffffffffffffffffffffffffffffffffffff168152505080806001019150506109c8565b508181995099505050505050505050915091565b8160008060003373ffffffffffffffffffffffffffffffffffffffff1673ffffffffffffffffffffffffffffffffffffffff16815260200190815260200160002082604051610aa891906132d4565b90815260200160405180910390206001018054610ac49061331a565b905003610b06576040517f08c379a0000000000000000000000000000000000000000000000000000000008152600401610afd90613681565b60405180910390fd5b60005b8251811015610e6b576000838281518110610b2757610b266136a1565b5b602002602001015190506000805b600260003373ffffffffffffffffffffffffffffffffffffffff1673ffffffffffffffffffffffffffffffffffffffff16815260200190815260200160002080549050811015610c43578273ffffffffffffffffffffffffffffffffffffffff16600260003373ffffffffffffffffffffffffffffffffffffffff1673ffffffffffffffffffffffffffffffffffffffff1681526020019081526020016000208281548110610be757610be66136a1565b5b9060005260206000200160009054906101000a900473ffffffffffffffffffffffffffffffffffffffff1673ffffffffffffffffffffffffffffffffffffffff1603610c365760019150610c43565b8080600101915050610b35565b5080610c84576040517f08c379a0000000000000000000000000000000000000000000000000000000008152600401610c7b9061384d565b60405180910390fd5b6000600360003373ffffffffffffffffffffffffffffffffffffffff1673ffffffffffffffffffffffffffffffffffffffff16815260200190815260200160002060008473ffffffffffffffffffffffffffffffffffffffff1673ffffffffffffffffffffffffffffffffffffffff16815260200190815260200160002090506000805b8280549050811015610d69578880519060200120838281548110610d2f57610d2e6136a1565b5b90600052602060002001604051610d469190613773565b604051809103902003610d5c5760019150610d69565b8080600101915050610d08565b508015610dab576040517f08c379a0000000000000000000000000000000000000000000000000000000008152600401610da2906138df565b60405180910390fd5b600360003373ffffffffffffffffffffffffffffffffffffffff1673ffffffffffffffffffffffffffffffffffffffff16815260200190815260200160002060008573ffffffffffffffffffffffffffffffffffffffff1673ffffffffffffffffffffffffffffffffffffffff16815260200190815260200160002088908060018154018082558091505060019003906000526020600020016000909190919091509081610e599190613563565b50505050508080600101915050610b09565b50505050565b60606000808473ffffffffffffffffffffffffffffffffffffffff1673ffffffffffffffffffffffffffffffffffffffff16815260200190815260200160002082604051610ebf91906132d4565b90815260200160405180910390206000018054610edb9061331a565b80601f0160208091040260200160405190810160405280929190818152602001828054610f079061331a565b8015610f545780601f10610f2957610100808354040283529160200191610f54565b820191906000526020600020905b815481529060010190602001808311610f3757829003601f168201915b5050505050905092915050565b8160008060003373ffffffffffffffffffffffffffffffffffffffff1673ffffffffffffffffffffffffffffffffffffffff16815260200190815260200160002082604051610fb091906132d4565b90815260200160405180910390206001018054610fcc9061331a565b90500361100e576040517f08c379a000000000000000000000000000000000000000000000000000000000815260040161100590613681565b60405180910390fd5b6000600260003373ffffffffffffffffffffffffffffffffffffffff1673ffffffffffffffffffffffffffffffffffffffff168152602001908152602001600020905060005b8351811015611325576000848281518110611072576110716136a1565b5b602002602001015190506000805b8480549050811015611112578273ffffffffffffffffffffffffffffffffffffffff168582815481106110b6576110b56136a1565b5b9060005260206000200160009054906101000a900473ffffffffffffffffffffffffffffffffffffffff1673ffffffffffffffffffffffffffffffffffffffff16036111055760019150611112565b8080600101915050611080565b5080611153576040517f08c379a000000000000000000000000000000000000000000000000000000000815260040161114a9061384d565b60405180910390fd5b6000600360003373ffffffffffffffffffffffffffffffffffffffff1673ffffffffffffffffffffffffffffffffffffffff16815260200190815260200160002060008473ffffffffffffffffffffffffffffffffffffffff1673ffffffffffffffffffffffffffffffffffffffff16815260200190815260200160002090506000805b82805490508110156112d35789805190602001208382815481106111fe576111fd6136a1565b5b906000526020600020016040516112159190613773565b6040518091039020036112c657600191506001838054905061123791906138ff565b811015611292578260018261124c9190613933565b8154811061125d5761125c6136a1565b5b9060005260206000200183828154811061127a576112796136a1565b5b9060005260206000200190816112909190613992565b505b828054806112a3576112a2613a7a565b5b6001900381819060005260206000200160006112bf91906128be565b90556112d3565b80806001019150506111d7565b5080611314576040517f08c379a000000000000000000000000000000000000000000000000000000000815260040161130b90613b1b565b60405180910390fd5b505050508080600101915050611054565b5050505050565b806040518060400160405280601481526020017f596f7520617265206e6f7420667269656e64732e00000000000000000000000081525060016000805b600260003373ffffffffffffffffffffffffffffffffffffffff1673ffffffffffffffffffffffffffffffffffffffff16815260200190815260200160002080549050811015611477578473ffffffffffffffffffffffffffffffffffffffff16600260003373ffffffffffffffffffffffffffffffffffffffff1673ffffffffffffffffffffffffffffffffffffffff168152602001908152602001600020828154811061141b5761141a6136a1565b5b9060005260206000200160009054906101000a900473ffffffffffffffffffffffffffffffffffffffff1673ffffffffffffffffffffffffffffffffffffffff160361146a5760019150611477565b8080600101915050611369565b508115158115151483906114c1576040517f08c379a00000000000000000000000000000000000000000000000000000000081526004016114b89190612f2c565b60405180910390fd5b506000805b600260003373ffffffffffffffffffffffffffffffffffffffff1673ffffffffffffffffffffffffffffffffffffffff168152602001908152602001600020805490508110156117515781806115c257508673ffffffffffffffffffffffffffffffffffffffff16600260003373ffffffffffffffffffffffffffffffffffffffff1673ffffffffffffffffffffffffffffffffffffffff168152602001908152602001600020828154811061157f5761157e6136a1565b5b9060005260206000200160009054906101000a900473ffffffffffffffffffffffffffffffffffffffff1673ffffffffffffffffffffffffffffffffffffffff16145b15611744576001600260003373ffffffffffffffffffffffffffffffffffffffff1673ffffffffffffffffffffffffffffffffffffffff1681526020019081526020016000208054905061161691906138ff565b81101561173f57600260003373ffffffffffffffffffffffffffffffffffffffff1673ffffffffffffffffffffffffffffffffffffffff1681526020019081526020016000206001826116699190613933565b8154811061167a576116796136a1565b5b9060005260206000200160009054906101000a900473ffffffffffffffffffffffffffffffffffffffff16600260003373ffffffffffffffffffffffffffffffffffffffff1673ffffffffffffffffffffffffffffffffffffffff16815260200190815260200160002082815481106116f6576116f56136a1565b5b9060005260206000200160006101000a81548173ffffffffffffffffffffffffffffffffffffffff021916908373ffffffffffffffffffffffffffffffffffffffff1602179055505b600191505b80806001019150506114c6565b5080156117dd57600260003373ffffffffffffffffffffffffffffffffffffffff1673ffffffffffffffffffffffffffffffffffffffff1681526020019081526020016000208054806117a7576117a6613a7a565b5b6001900381819060005260206000200160006101000a81549073ffffffffffffffffffffffffffffffffffffffff021916905590555b600360003373ffffffffffffffffffffffffffffffffffffffff1673ffffffffffffffffffffffffffffffffffffffff16815260200190815260200160002060008773ffffffffffffffffffffffffffffffffffffffff1673ffffffffffffffffffffffffffffffffffffffff168152602001908152602001600020600061186591906128fe565b600360008773ffffffffffffffffffffffffffffffffffffffff1673ffffffffffffffffffffffffffffffffffffffff16815260200190815260200160002060003373ffffffffffffffffffffffffffffffffffffffff1673ffffffffffffffffffffffffffffffffffffffff16815260200190815260200160002060006118ed91906128fe565b505050505050565b6060806000600260003373ffffffffffffffffffffffffffffffffffffffff1673ffffffffffffffffffffffffffffffffffffffff16815260200190815260200160002080549050905060008167ffffffffffffffff81111561195b5761195a612ac2565b5b6040519080825280602002602001820160405280156119895781602001602082028036833780820191505090505b50905060008267ffffffffffffffff8111156119a8576119a7612ac2565b5b6040519080825280602002602001820160405280156119db57816020015b60608152602001906001900390816119c65790505b50905060005b83811015611e79576000600260003373ffffffffffffffffffffffffffffffffffffffff1673ffffffffffffffffffffffffffffffffffffffff1681526020019081526020016000208281548110611a3c57611a3b6136a1565b5b9060005260206000200160009054906101000a900473ffffffffffffffffffffffffffffffffffffffff16905080848381518110611a7d57611a7c6136a1565b5b602002602001019073ffffffffffffffffffffffffffffffffffffffff16908173ffffffffffffffffffffffffffffffffffffffff16815250506000600360008373ffffffffffffffffffffffffffffffffffffffff1673ffffffffffffffffffffffffffffffffffffffff16815260200190815260200160002060003373ffffffffffffffffffffffffffffffffffffffff1673ffffffffffffffffffffffffffffffffffffffff168152602001908152602001600020805480602002602001604051908101604052809291908181526020016000905b82821015611c01578382906000526020600020018054611b749061331a565b80601f0160208091040260200160405190810160405280929190818152602001828054611ba09061331a565b8015611bed5780601f10611bc257610100808354040283529160200191611bed565b820191906000526020600020905b815481529060010190602001808311611bd057829003601f168201915b505050505081526020019060010190611b55565b50505050905060008151905060008167ffffffffffffffff811115611c2957611c28612ac2565b5b604051908082528060200260200182016040528015611c6257816020015b611c4f61291f565b815260200190600190039081611c475790505b50905060005b82811015611e48576000808673ffffffffffffffffffffffffffffffffffffffff1673ffffffffffffffffffffffffffffffffffffffff168152602001908152602001600020848281518110611cc157611cc06136a1565b5b6020026020010151604051611cd691906132d4565b9081526020016040518091039020604051806060016040529081600082018054611cff9061331a565b80601f0160208091040260200160405190810160405280929190818152602001828054611d2b9061331a565b8015611d785780601f10611d4d57610100808354040283529160200191611d78565b820191906000526020600020905b815481529060010190602001808311611d5b57829003601f168201915b50505050508152602001600182018054611d919061331a565b80601f0160208091040260200160405190810160405280929190818152602001828054611dbd9061331a565b8015611e0a5780601f10611ddf57610100808354040283529160200191611e0a565b820191906000526020600020905b815481529060010190602001808311611ded57829003601f168201915b50505050508152602001600282015481525050828281518110611e3057611e2f6136a1565b5b60200260200101819052508080600101915050611c68565b5080868681518110611e5d57611e5c6136a1565b5b60200260200101819052505050505080806001019150506119e1565b508181945094505050509091565b8060008060003373ffffffffffffffffffffffffffffffffffffffff1673ffffffffffffffffffffffffffffffffffffffff16815260200190815260200160002082604051611ed691906132d4565b90815260200160405180910390206001018054611ef29061331a565b905003611f34576040517f08c379a0000000000000000000000000000000000000000000000000000000008152600401611f2b90613681565b60405180910390fd5b6000600160003373ffffffffffffffffffffffffffffffffffffffff1673ffffffffffffffffffffffffffffffffffffffff16815260200190815260200160002090506000805b828054905081101561204d578480519060200120838281548110611fa257611fa16136a1565b5b90600052602060002001604051611fb99190613773565b604051809103902003611fcb57600191505b818015611fe7575060018380549050611fe491906138ff565b81105b156120405782600182611ffa9190613933565b8154811061200b5761200a6136a1565b5b90600052602060002001838281548110612028576120276136a1565b5b90600052602060002001908161203e9190613992565b505b8080600101915050611f7b565b508015612109578180548061206557612064613a7a565b5b60019003818190600052602060002001600061208191906128be565b90556000803373ffffffffffffffffffffffffffffffffffffffff1673ffffffffffffffffffffffffffffffffffffffff168152602001908152602001600020846040516120cf91906132d4565b9081526020016040518091039020600080820160006120ee91906128be565b6001820160006120fe91906128be565b600282016000905550505b60005b600260003373ffffffffffffffffffffffffffffffffffffffff1673ffffffffffffffffffffffffffffffffffffffff16815260200190815260200160002080549050811015612375576000600260003373ffffffffffffffffffffffffffffffffffffffff1673ffffffffffffffffffffffffffffffffffffffff16815260200190815260200160002082815481106121a9576121a86136a1565b5b9060005260206000200160009054906101000a900473ffffffffffffffffffffffffffffffffffffffff1690506000600360003373ffffffffffffffffffffffffffffffffffffffff1673ffffffffffffffffffffffffffffffffffffffff16815260200190815260200160002060008373ffffffffffffffffffffffffffffffffffffffff1673ffffffffffffffffffffffffffffffffffffffff16815260200190815260200160002090506000935060005b818054905081101561232f578780519060200120828281548110612284576122836136a1565b5b9060005260206000200160405161229b9190613773565b6040518091039020036122ad57600194505b8480156122c95750600182805490506122c691906138ff565b81105b1561232257816001826122dc9190613933565b815481106122ed576122ec6136a1565b5b9060005260206000200182828154811061230a576123096136a1565b5b9060005260206000200190816123209190613992565b505b808060010191505061225d565b508315612366578080548061234757612346613a7a565b5b60019003818190600052602060002001600061236391906128be565b90555b5050808060010191505061210c565b5050505050565b806040518060400160405280601181526020017f416c7265616479206120667269656e642e0000000000000000000000000000008152506000806000905060005b600260003373ffffffffffffffffffffffffffffffffffffffff1673ffffffffffffffffffffffffffffffffffffffff168152602001908152602001600020805490508110156124cb578473ffffffffffffffffffffffffffffffffffffffff16600260003373ffffffffffffffffffffffffffffffffffffffff1673ffffffffffffffffffffffffffffffffffffffff168152602001908152602001600020828154811061246f5761246e6136a1565b5b9060005260206000200160009054906101000a900473ffffffffffffffffffffffffffffffffffffffff1673ffffffffffffffffffffffffffffffffffffffff16036124be57600191506124cb565b80806001019150506123bd565b50811515811515148390612515576040517f08c379a000000000000000000000000000000000000000000000000000000000815260040161250c9190612f2c565b60405180910390fd5b508473ffffffffffffffffffffffffffffffffffffffff163373ffffffffffffffffffffffffffffffffffffffff1603612584576040517f08c379a000000000000000000000000000000000000000000000000000000000815260040161257b90613bad565b60405180910390fd5b600260003373ffffffffffffffffffffffffffffffffffffffff1673ffffffffffffffffffffffffffffffffffffffff168152602001908152602001600020859080600181540180825580915050600190039060005260206000200160009091909190916101000a81548173ffffffffffffffffffffffffffffffffffffffff021916908373ffffffffffffffffffffffffffffffffffffffff1602179055505050505050565b60606000600160003373ffffffffffffffffffffffffffffffffffffffff1673ffffffffffffffffffffffffffffffffffffffff16815260200190815260200160002090506000818054905067ffffffffffffffff8111156126905761268f612ac2565b5b6040519080825280602002602001820160405280156126c957816020015b6126b661291f565b8152602001906001900390816126ae5790505b50905060005b82805490508110156128b5576000803373ffffffffffffffffffffffffffffffffffffffff1673ffffffffffffffffffffffffffffffffffffffff16815260200190815260200160002083828154811061272c5761272b6136a1565b5b906000526020600020016040516127439190613c50565b908152602001604051809103902060405180606001604052908160008201805461276c9061331a565b80601f01602080910402602001604051908101604052809291908181526020018280546127989061331a565b80156127e55780601f106127ba576101008083540402835291602001916127e5565b820191906000526020600020905b8154815290600101906020018083116127c857829003601f168201915b505050505081526020016001820180546127fe9061331a565b80601f016020809104026020016040519081016040528092919081815260200182805461282a9061331a565b80156128775780601f1061284c57610100808354040283529160200191612877565b820191906000526020600020905b81548152906001019060200180831161285a57829003601f168201915b5050505050815260200160028201548152505082828151811061289d5761289c6136a1565b5b602002602001018190525080806001019150506126cf565b50809250505090565b5080546128ca9061331a565b6000825580601f106128dc57506128fb565b601f0160209004906000526020600020908101906128fa9190612940565b5b50565b508054600082559060005260206000209081019061291c919061295d565b50565b60405180606001604052806060815260200160608152602001600081525090565b5b80821115612959576000816000905550600101612941565b5090565b5b8082111561297d576000818161297491906128be565b5060010161295e565b5090565b600081519050919050565b600082825260208201905092915050565b6000819050602082019050919050565b600073ffffffffffffffffffffffffffffffffffffffff82169050919050565b60006129d8826129ad565b9050919050565b6129e8816129cd565b82525050565b60006129fa83836129df565b60208301905092915050565b6000602082019050919050565b6000612a1e82612981565b612a28818561298c565b9350612a338361299d565b8060005b83811015612a64578151612a4b88826129ee565b9750612a5683612a06565b925050600181019050612a37565b5085935050505092915050565b60006020820190508181036000830152612a8b8184612a13565b905092915050565b6000604051905090565b600080fd5b600080fd5b600080fd5b600080fd5b6000601f19601f8301169050919050565b7f4e487b7100000000000000000000000000000000000000000000000000000000600052604160045260246000fd5b612afa82612ab1565b810181811067ffffffffffffffff82111715612b1957612b18612ac2565b5b80604052505050565b6000612b2c612a93565b9050612b388282612af1565b919050565b600067ffffffffffffffff821115612b5857612b57612ac2565b5b612b6182612ab1565b9050602081019050919050565b82818337600083830152505050565b6000612b90612b8b84612b3d565b612b22565b905082815260208101848484011115612bac57612bab612aac565b5b612bb7848285612b6e565b509392505050565b600082601f830112612bd457612bd3612aa7565b5b8135612be4848260208601612b7d565b91505092915050565b60008060408385031215612c0457612c03612a9d565b5b600083013567ffffffffffffffff811115612c2257612c21612aa2565b5b612c2e85828601612bbf565b925050602083013567ffffffffffffffff811115612c4f57612c4e612aa2565b5b612c5b85828601612bbf565b9150509250929050565b600060208284031215612c7b57612c7a612a9d565b5b600082013567ffffffffffffffff811115612c9957612c98612aa2565b5b612ca584828501612bbf565b91505092915050565b60006040820190508181036000830152612cc88185612a13565b90508181036020830152612cdc8184612a13565b90509392505050565b600067ffffffffffffffff821115612d0057612cff612ac2565b5b602082029050602081019050919050565b600080fd5b612d1f816129cd565b8114612d2a57600080fd5b50565b600081359050612d3c81612d16565b92915050565b6000612d55612d5084612ce5565b612b22565b90508083825260208201905060208402830185811115612d7857612d77612d11565b5b835b81811015612da15780612d8d8882612d2d565b845260208401935050602081019050612d7a565b5050509392505050565b600082601f830112612dc057612dbf612aa7565b5b8135612dd0848260208601612d42565b91505092915050565b60008060408385031215612df057612def612a9d565b5b600083013567ffffffffffffffff811115612e0e57612e0d612aa2565b5b612e1a85828601612bbf565b925050602083013567ffffffffffffffff811115612e3b57612e3a612aa2565b5b612e4785828601612dab565b9150509250929050565b60008060408385031215612e6857612e67612a9d565b5b6000612e7685828601612d2d565b925050602083013567ffffffffffffffff811115612e9757612e96612aa2565b5b612ea385828601612bbf565b9150509250929050565b600081519050919050565b600082825260208201905092915050565b60005b83811015612ee7578082015181840152602081019050612ecc565b60008484015250505050565b6000612efe82612ead565b612f088185612eb8565b9350612f18818560208601612ec9565b612f2181612ab1565b840191505092915050565b60006020820190508181036000830152612f468184612ef3565b905092915050565b600060208284031215612f6457612f63612a9d565b5b6000612f7284828501612d2d565b91505092915050565b600081519050919050565b600082825260208201905092915050565b6000819050602082019050919050565b600081519050919050565b600082825260208201905092915050565b6000819050602082019050919050565b600082825260208201905092915050565b6000612fef82612ead565b612ff98185612fd3565b9350613009818560208601612ec9565b61301281612ab1565b840191505092915050565b6000819050919050565b6130308161301d565b82525050565b600060608301600083015184820360008601526130538282612fe4565b9150506020830151848203602086015261306d8282612fe4565b91505060408301516130826040860182613027565b508091505092915050565b60006130998383613036565b905092915050565b6000602082019050919050565b60006130b982612fa7565b6130c38185612fb2565b9350836020820285016130d585612fc3565b8060005b8581101561311157848403895281516130f2858261308d565b94506130fd836130a1565b925060208a019950506001810190506130d9565b50829750879550505050505092915050565b600061312f83836130ae565b905092915050565b6000602082019050919050565b600061314f82612f7b565b6131598185612f86565b93508360208202850161316b85612f97565b8060005b858110156131a757848403895281516131888582613123565b945061319383613137565b925060208a0199505060018101905061316f565b50829750879550505050505092915050565b600060408201905081810360008301526131d38185612a13565b905081810360208301526131e78184613144565b90509392505050565b600082825260208201905092915050565b600061320c82612fa7565b61321681856131f0565b93508360208202850161322885612fc3565b8060005b858110156132645784840389528151613245858261308d565b9450613250836130a1565b925060208a0199505060018101905061322c565b50829750879550505050505092915050565b600060208201905081810360008301526132908184613201565b905092915050565b600081905092915050565b60006132ae82612ead565b6132b88185613298565b93506132c8818560208601612ec9565b80840191505092915050565b60006132e082846132a3565b915081905092915050565b7f4e487b7100000000000000000000000000000000000000000000000000000000600052602260045260246000fd5b6000600282049050600182168061333257607f821691505b602082108103613345576133446132eb565b5b50919050565b7f46696c6520616c72656164792065786973747300000000000000000000000000600082015250565b6000613381601383612eb8565b915061338c8261334b565b602082019050919050565b600060208201905081810360008301526133b081613374565b9050919050565b60008190508160005260206000209050919050565b60006020601f8301049050919050565b600082821b905092915050565b6000600883026134197fffffffffffffffffffffffffffffffffffffffffffffffffffffffffffffffff826133dc565b61342386836133dc565b95508019841693508086168417925050509392505050565b6000819050919050565b600061346061345b6134568461301d565b61343b565b61301d565b9050919050565b6000819050919050565b61347a83613445565b61348e61348682613467565b8484546133e9565b825550505050565b600090565b6134a3613496565b6134ae818484613471565b505050565b5b818110156134d2576134c760008261349b565b6001810190506134b4565b5050565b601f821115613517576134e8816133b7565b6134f1846133cc565b81016020851015613500578190505b61351461350c856133cc565b8301826134b3565b50505b505050565b600082821c905092915050565b600061353a6000198460080261351c565b1980831691505092915050565b60006135538383613529565b9150826002028217905092915050565b61356c82612ead565b67ffffffffffffffff81111561358557613584612ac2565b5b61358f825461331a565b61359a8282856134d6565b600060209050601f8311600181146135cd57600084156135bb578287015190505b6135c58582613547565b86555061362d565b601f1984166135db866133b7565b60005b82811015613603578489015182556001820191506020850194506020810190506135de565b86831015613620578489015161361c601f891682613529565b8355505b6001600288020188555050505b505050505050565b7f46696c6520646f6573206e6f7420657869737400000000000000000000000000600082015250565b600061366b601383612eb8565b915061367682613635565b602082019050919050565b6000602082019050818103600083015261369a8161365e565b9050919050565b7f4e487b7100000000000000000000000000000000000000000000000000000000600052603260045260246000fd5b600081905092915050565b60008190508160005260206000209050919050565b600081546136fd8161331a565b61370781866136d0565b9450600182166000811461372257600181146137375761376a565b60ff198316865281151582028601935061376a565b613740856136db565b60005b8381101561376257815481890152600182019150602081019050613743565b838801955050505b50505092915050565b600061377f82846136f0565b915081905092915050565b7f4e487b7100000000000000000000000000000000000000000000000000000000600052601160045260246000fd5b60006137c48261301d565b91507fffffffffffffffffffffffffffffffffffffffffffffffffffffffffffffffff82036137f6576137f561378a565b5b600182019050919050565b7f536f6d656f6e65206973206e6f74206120667269656e64000000000000000000600082015250565b6000613837601783612eb8565b915061384282613801565b602082019050919050565b600060208201905081810360008301526138668161382a565b9050919050565b7f46696c6520616c726561647920617070726f76656420666f722074686973206660008201527f7269656e64000000000000000000000000000000000000000000000000000000602082015250565b60006138c9602583612eb8565b91506138d48261386d565b604082019050919050565b600060208201905081810360008301526138f8816138bc565b9050919050565b600061390a8261301d565b91506139158361301d565b925082820390508181111561392d5761392c61378a565b5b92915050565b600061393e8261301d565b91506139498361301d565b92508282019050808211156139615761396061378a565b5b92915050565b6000815490506139768161331a565b9050919050565b60008190508160005260206000209050919050565b8181036139a0575050613a78565b6139a982613967565b67ffffffffffffffff8111156139c2576139c1612ac2565b5b6139cc825461331a565b6139d78282856134d6565b6000601f831160018114613a0657600084156139f4578287015490505b6139fe8582613547565b865550613a71565b601f198416613a148761397d565b9650613a1f866133b7565b60005b82811015613a4757848901548255600182019150600185019450602081019050613a22565b86831015613a645784890154613a60601f891682613529565b8355505b6001600288020188555050505b5050505050505b565b7f4e487b7100000000000000000000000000000000000000000000000000000000600052603160045260246000fd5b7f46696c65206e6f7420617070726f76656420666f72207468697320667269656e60008201527f6400000000000000000000000000000000000000000000000000000000000000602082015250565b6000613b05602183612eb8565b9150613b1082613aa9565b604082019050919050565b60006020820190508181036000830152613b3481613af8565b9050919050565b7f596f752063616e27742061646420796f757273656c6620617320796f7572206660008201527f7269656e64000000000000000000000000000000000000000000000000000000602082015250565b6000613b97602583612eb8565b9150613ba282613b3b565b604082019050919050565b60006020820190508181036000830152613bc681613b8a565b9050919050565b60008154613bda8161331a565b613be48186613298565b94506001821660008114613bff5760018114613c1457613c47565b60ff1983168652811515820286019350613c47565b613c1d856133b7565b60005b83811015613c3f57815481890152600182019150602081019050613c20565b838801955050505b50505092915050565b6000613c5c8284613bcd565b91508190509291505056fea2646970667358221220fa29aaa600c240ebd8440ca3b9eca282a83fb865a019ac067574e2925ed7005064736f6c63430008180033",
  "linkReferences": {},
  "deployedLinkReferences": {}
}